:100000000C945D000C9485000C9485000C94850084
:100010000C9485000C9485000C9485000C9485004C
:100020000C9485000C9485000C9485000C9485003C
:100030000C9485000C9485000C9485000C9485002C
:100040000C9456030C9485000C9424030C94FE022B
:100050000C9485000C9485000C9485000C9485000C
:100060000C9485000C94850000000008000201003B
:100070000003040700000000000000000000000072
:10008000250028002B0000000000240027002A0083
:10009000040404040404040402020202020203032E
:1000A0000303030301020408102040800102040836
:1000B0001020010204081020A00311241FBECFEF5E
:1000C000D8E0DEBFCDBF11E0A0E0B1E0E6E4F3E1AF
:1000D00002C005900D92A03CB107D9F722E0A0EC38
:1000E000B1E001C01D92A139B207E1F710E0CDE502
:1000F000D0E004C02197FE010E949B09CC35D107B6
:10010000C9F70E94DE030C94A1090C94000090E052
:10011000FC01EC55FF4F249180579F4FFC018491C7
:10012000882399F090E0880F991FFC01EA57FF4F50
:10013000A591B491FC01E458FF4F859194918FB73C
:10014000F894EC91E22BEC938FBF0895AF92BF929D
:10015000CF92DF92EF92FF920F931F93CF93DF9393
:100160006C017B018B01040F151FEB015E01AE18C2
:10017000BF08C017D10759F06991D601ED91FC91E4
:100180000190F081E02DC6010995892B79F7C50111
:10019000DF91CF911F910F91FF90EF90DF90CF9063
:1001A000BF90AF900895FC01538D448D252F30E012
:1001B000842F90E0821B930B541710F0CF96089574
:1001C00001970895FC01918D828D981761F0A28DA1
:1001D000AE0FBF2FB11D5D968C91928D9F5F9F7367
:1001E000928F90E008958FEF9FEF0895FC01918D1D
:1001F000828D981731F0828DE80FF11D858D90E08A
:1002000008958FEF9FEF0895FC01918D228D892F26
:1002100090E0805C9F4F821B91098F73992708950E
:1002200089EC91E00E94040121E0892B09F420E08F
:10023000822F089580E090E0892B29F00E94100120
:1002400081110C9400000895FC01A48DA80FB92F12
:10025000B11DA35ABF4F2C91848D90E001968F73EE
:100260009927848FA689B7892C93A089B1898C910D
:10027000837080648C93938D848D981306C002885C
:10028000F389E02D80818F7D80830895EF92FF9226
:100290000F931F93CF93DF93EC0181E0888F9B8DA9
:1002A0008C8D98131AC0E889F989808185FF15C063
:1002B0009FB7F894EE89FF896083E889F989808186
:1002C0008370806480839FBF81E090E0DF91CF9155
:1002D0001F910F91FF90EF900895F62E0B8D10E077
:1002E0000F5F1F4F0F731127E02E8C8D8E110CC0E6
:1002F0000FB607FCFACFE889F989808185FFF5CF31
:10030000CE010E942401F1CFEB8DEC0FFD2FF11DEA
:10031000E35AFF4FF0829FB7F8940B8FEA89FB896D
:1003200080818062CFCFCF93DF93EC01888D8823CB
:10033000B9F0AA89BB89E889F9898C9185FD03C048
:10034000808186FD0DC00FB607FCF7CF8C9185FF2D
:10035000F2CF808185FFEDCFCE010E942401E9CF4D
:10036000DF91CF91089590E0FC01E859FF4F24916F
:10037000FC01EC55FF4F3491FC01E057FF4FE49135
:10038000EE23C9F0222339F0233001F1A8F4213003
:1003900019F1223029F1F0E0EE0FFF1FE458FF4F72
:1003A000A591B4918FB7F894EC91611126C0309566
:1003B0003E233C938FBF08952730A9F02830C9F021
:1003C000243049F7809180008F7D03C080918000A8
:1003D0008F7780938000DFCF84B58F7784BDDBCFAC
:1003E00084B58F7DFBCF8091B0008F778093B00074
:1003F000D2CF8091B0008F7DF9CF3E2BDACFCF9353
:10040000DF93C82FD0E080917E02D81758F4ED2FEB
:10041000F0E0EA59FD4F6091690287850E94B301BF
:10042000DF5FF1CFEC2FF0E0EA59FD4F60916702FA
:100430008781DF91CF910C94B301CF93DF93C82FC5
:10044000D0E080917D02D81758F4ED2FF0E0EA5902
:10045000FD4F6091670287810E94B301DF5FF1CF9A
:10046000EC2FF0E0EA59FD4F609169028785DF913A
:10047000CF910C94B3011F93CF93DF93C82FD0E09B
:10048000CA59DD4F609166028F810E94B30110E06E
:100490006A9680917E021817A8F4E12FF0E0888117
:1004A00090E0012E02C0959587950A94E2F780FFAF
:1004B00007C0EA59FD4F6091680287850E94B30129
:1004C0001F5FE7CFDF91CF911F9108950F931F9387
:1004D000CF93C82FE82FF0E0EA59FD4F60916802F2
:1004E00087850E94B30101E010E002C0000F111FD8
:1004F000CA95E2F7C0E080917D02C81788F4EC2F1E
:10050000F0E0EA59FD4F828D90E080239123892B02
:1005100029F06091660287810E94B301CF5FEBCF23
:10052000CF911F910F9108958230910538F0880F77
:10053000991F880F991F05970197F1F70895FC01FE
:1005400001900020E9F73197AF01481B590BBC011E
:1005500089EC91E00C94A6008F929F92AF92BF928B
:100560000F931F93CF93DF93CDB7DEB7A1970FB64D
:10057000F894DEBF0FBECDBF19A2423008F44AE0A6
:100580008E010F5D1F4F842E912CB12CA12CA50143
:1005900094010E94A007E62FB901CA01EA30F4F4E1
:1005A000E05DD801EE938D01232B242B252B79F7C9
:1005B00090E080E0109719F0CD010E949F02A19673
:1005C0000FB6F894DEBF0FBECDBFDF91CF911F9164
:1005D0000F91BF90AF909F908F900895E95CE1CF0D
:1005E000CF93DF930E949F02EC018FE691E00E947F
:1005F0009F028C0F9D1FDF91CF9108951F920F9244
:100600000FB60F9211242F933F934F935F936F93E5
:100610007F938F939F93AF93BF93EF93FF9389EC57
:1006200091E00E942401FF91EF91BF91AF919F91C2
:100630008F917F916F915F914F913F912F910F908B
:100640000FBE0F901F9018951F920F920FB60F922A
:1006500011242F938F939F93EF93FF93E091D901F0
:10066000F091DA018081E091DF01F091E00182FDFB
:100670001BC090818091E2018F5F8F732091E30115
:10068000821741F0E091E201F0E0E753FE4F958FD1
:100690008093E201FF91EF919F918F912F910F90A5
:1006A0000FBE0F901F9018958081F4CF1F920F926C
:1006B0000FB60F9211242F933F938F939F93AF9375
:1006C000BF938091C1019091C201A091C301B091EB
:1006D000C4013091C00123E0230F2D3758F5019656
:1006E000A11DB11D2093C0018093C1019093C2014F
:1006F000A093C301B093C4018091C5019091C6013C
:10070000A091C701B091C8010196A11DB11D8093B0
:10071000C5019093C601A093C701B093C801BF91D2
:10072000AF919F918F913F912F910F900FBE0F909E
:100730001F90189526E8230F0296A11DB11DD2CF58
:10074000E9ECF1E01382128288EE93E0A0E0B0E0E1
:1007500084839583A683B78381E691E09183808328
:1007600085EC90E09587848784EC90E09787868776
:1007700080EC90E0918B808B81EC90E0938B828B6E
:1007800082EC90E0958B848B86EC90E0978B868B47
:10079000118E128E138E148EE6E6F2E080ED97E055
:1007A00097A386A311A610A612A6178A118E12A2CD
:1007B00013A214A215A2148215820895CF93DF9379
:1007C000CDB7DEB761970FB6F894DEBF0FBECDBFD1
:1007D000789484B5826084BD84B5816084BD85B51C
:1007E000826085BD85B5816085BD80916E00816028
:1007F00080936E00109281008091810082608093CE
:1008000081008091810081608093810080918000CF
:100810008160809380008091B10084608093B100FA
:100820008091B00081608093B00080917A008460F4
:1008300080937A0080917A00826080937A00809120
:100840007A00816080937A0080917A00806880933A
:100850007A001092C100E091D901F091DA0182E0B2
:100860008083E091D501F091D6011082E091D7010B
:10087000F091D8018FEC80831092E101E091DD01CD
:10088000F091DE0186E08083E091DB01F091DC01F4
:10089000808180618083E091DB01F091DC018081C7
:1008A00088608083E091DB01F091DC0180818068C9
:1008B0008083E091DB01F091DC0180818F7D80837A
:1008C00082E791E00E94F00285E891E00E94F00248
:1008D00082E791E00E94F002809100019091010175
:1008E000A0910201B091030189879A87AB87BC87E9
:1008F00088E0E4E0F1E08E010F5F1F4FD801019026
:100900000D928A95E1F710926A0210926B02109292
:100910006C0284E080937D0288E080937E0281E017
:1009200080936602109268021092670280936902B7
:10093000F801A5E7B2E0CE01099621912D938E171B
:100940009F07D9F7898580936D028A8580936E020F
:100950008B8580936F028C8580937002F12C80913F
:100960007D02F81690F48F2D90E09C012A593D4F9E
:100970006901F90187810E94870060916702F60191
:1009800087810E94B301F394EACFF12C80917E021B
:10099000F81660F020917D0290E080E08217C0F4AC
:1009A000FC01EA59FD4F128E0196F8CF8F2D90E091
:1009B0009C012A593D4F6901F90187850E948700F2
:1009C00060916902F60187850E94B301F394DECF3E
:1009D00080E00E941D0280E00E94FF0180ED97E010
:1009E00090938D0280938C0210928F0210928E024F
:1009F000109290028FB7F894C090C101D090C201BC
:100A0000E090C301F090C4018FBF2FB7F89480919C
:100A1000C1019091C201A091C301B091C4012FBF47
:100A20008C199D09AE09BF09803D9740A105B1050C
:100A300008F0D0C080916B02811191C03FB7F8944B
:100A40008091C5019091C601A091C701B091C801E4
:100A500026B5A89B05C02F3F19F00196A11DB11D19
:100A60003FBFBA2FA92F982F8827820F911DA11D54
:100A7000B11D42E0880F991FAA1FBB1F4A95D1F7ED
:100A800020919002409188025091890260918A02DF
:100A900070918B024C015D01841A950AA60AB70A6F
:100AA00040918E0250918F02211104C040918C021E
:100AB00050918D02052E000C660B770B841695065F
:100AC000A606B7060CF4A1CF809388029093890202
:100AD000A0938A02B0938B0280917F0290916A0268
:100AE000911120C0222391F01092900280917F02F8
:100AF0008F5F80937F0290917E02891710F0109291
:100B00007F0280917F020E9466027FCF0E941D02B9
:100B100080918E0290918F02892B41F321E02093E6
:100B2000900273CF222391F01092900280917F0265
:100B30008F5F80937F0290917D02891710F0109251
:100B40007F0280917F020E943B025FCF0E94FF01E3
:100B500080918E0290918F02892B41F3DFCF80919B
:100B60006A02B12C81111BC080917E02B81608F078
:100B70004CCF8B2D0E94660280918C0290918D0249
:100B80000E9494028B2D0E941D0280918E029091F2
:100B90008F02009711F00E949402B394E5CF8091E8
:100BA0007D02B81608F031CF8B2D0E943B02809158
:100BB0008C0290918D020E9494028B2D0E94FF0165
:100BC00080918E0290918F02009711F00E94940202
:100BD000B394E5CF34E430937C0080917A00806454
:100BE00080937A0080917A0086FDFCCF8091780016
:100BF00060917900762F682F072E000C880B990BD7
:100C00000E94740820E030E04AEF5EE30E94290968
:100C10006B017C0187E991E00E949F02A701960188
:100C2000C701B6010E949609882309F456C081EBDA
:100C300091E00E949F026FED89EC91E00E944601D5
:100C40008DEB91E00E94F00220E030E048EC52E4AD
:100C5000C701B6010E9429090E9443086B01F12CCB
:100C6000E12C40917D024D87842E912C3401660C3D
:100C7000771C660C771CF301EB5CFE4F8081918141
:100C8000A281B381C816D906EA06FB060CF4B7C0E8
:100C9000F8018E2F801B3D85831708F4FCC043E0CC
:100CA000841A9108A6E6B2E0980190E080E05D85A4
:100CB000851708F00EC1F90141919F01E42FF0E082
:100CC000E45FFE4F40818815990509F400C15A96EA
:100CD0004C935A9701961196EACF46015701E89432
:100CE000B7F82FEF3FEF4FE75FE7C501B4010E9470
:100CF000960981110DC02FEF3FEF4FE75FE7C50168
:100D0000B4010E943E0818161CF485EB91E091CFC7
:100D10002FEF3FEF4FE75FE4C701B6010E942409C0
:100D200018161CF489EB91E084CF2FEF3FEF4FE7CB
:100D30005FECC701B6010E943E0887FDF3CF20E0BB
:100D400030E0A901C701B6010E943E0887FF54C0E8
:100D50006DE289EC91E00E944601C701B60190580E
:100D60002AE037ED43EA5BE30E94D2072B013C0106
:100D70000E9443084B015C010E9472089B01AC0178
:100D8000C301B2010E94D1072B013C014AE0C50119
:100D9000B4010E94AC026EE289EC91E00E9446012F
:100DA00020E030E040E251E4C301B2010E94290991
:100DB0002B013C010E9443084B01B12CA12C4AE0BD
:100DC000C501B4010E94AC02C501B4010E947208C1
:100DD0009B01AC01C301B2010E94D10720E030E0C9
:100DE00040E251E40E9429090E94430890E080E01B
:100DF0004AE00E94AC021FCFC701B601B1CFD301B8
:100E0000AF5CBE4F8D919D910D90BC91A02D21E0C6
:100E100030E040E050E0281B390B4A0B5B0BDA0155
:100E2000C901C816D906EA06FB060CF431CF5F01EA
:100E30001F870E872CEFA4012403C001259F900D6E
:100E40001124998B888B85E3A81681E0B80631F1CF
:100E500094E0A91AB108E889F989EA0DFB1DE60DAD
:100E6000F71D2080318042805380C701B601A20166
:100E700091010E947607EE85FF852193FF87EE871B
:100E8000A22FB0E0A20191010E949507C61AD70ACD
:100E9000E80AF90AD8CF55E25193FBCE80916C0253
:100EA0008111FDCE940123503109E82FF0E0E217C3
:100EB000F3070CF0F4CEE00FF11F9081911104C004
:100EC00044E240838F5FF1CF9A30E0F7E8CE40688C
:100ED000FECE20E030E0232B09F48CCD0E941001DF
:100EE000882309F487CD0E94000084CD052E97FB4E
:100EF0001EF400940E948D0757FD07D00E94A007A2
:100F000007FC03D04EF40C948D0750954095309516
:100F100021953F4F4F4F5F4F089590958095709565
:100F200061957F4F8F4F9F4F08950E94C207A59FE5
:100F3000900DB49F900DA49F800D911D11240895D4
:100F4000A1E21A2EAA1BBB1BFD010DC0AA1FBB1FCD
:100F5000EE1FFF1FA217B307E407F50720F0A21B3F
:100F6000B30BE40BF50B661F771F881F991F1A94AC
:100F700069F760957095809590959B01AC01BD01D6
:100F8000CF010895A29FB001B39FC001A39F700D30
:100F9000811D1124911DB29F700D811D1124911D81
:100FA00008955058BB27AA270E94E9070C94EA0825
:100FB0000E94DC0838F00E94E30820F039F49F3FDB
:100FC00019F426F40C94D9080EF4E095E7FB0C9480
:100FD000D308E92F0E94FB0858F3BA17620773077A
:100FE0008407950720F079F4A6F50C941D090EF4FA
:100FF000E0950B2EBA2FA02D0B01B90190010C0129
:10100000CA01A0011124FF27591B99F0593F50F440
:10101000503E68F11A16F040A22F232F342F442798
:10102000585FF3CF469537952795A795F040539590
:10103000C9F77EF41F16BA0B620B730B840BBAF060
:101040009150A1F0FF0FBB1F661F771F881FC2F7CB
:101050000EC0BA0F621F731F841F48F487957795DF
:101060006795B795F7959E3F08F0B0CF9395880F99
:1010700008F09927EE0F9795879508950E94AF087D
:1010800008F481E008950E94030988F09F5798F0C2
:10109000B92F9927B751B0F0E1F0660F771F881F7D
:1010A000991F1AF0BA95C9F714C0B13091F00E9497
:1010B0001D09B1E008950C941D09672F782F88272A
:1010C000B85F39F0B93FCCF3869577956795B395BE
:1010D000D9F73EF490958095709561957F4F8F4F2D
:1010E0009F4F0895E89409C097FB3EF49095809532
:1010F000709561957F4F8F4F9F4F9923A9F0F92FDE
:1011000096E9BB279395F695879577956795B7955B
:10111000F111F8CFFAF4BB0F11F460FF1BC06F5F41
:101120007F4F8F4F9F4F16C0882311F096E911C053
:10113000772321F09EE8872F762F05C0662371F074
:1011400096E8862F70E060E02AF09A95660F771F88
:10115000881FDAF7880F9695879597F90895990F64
:101160000008550FAA0BE0E8FEEF16161706E80771
:10117000F907C0F012161306E407F50798F0621B92
:10118000730B840B950B39F40A2661F0232B242B67
:10119000252B21F408950A2609F4A140A6958FEF86
:1011A000811D811D089597F99F6780E870E060E0D8
:1011B00008959FEF80EC089500240A9416161706F0
:1011C00018060906089500240A9412161306140638
:1011D00005060895092E0394000C11F4882352F09B
:1011E000BB0F40F4BF2B11F460FF04C06F5F7F4F53
:1011F0008F4F9F4F089557FD9058440F551F59F03A
:101200005F3F71F04795880F97FB991F61F09F3FF3
:1012100079F087950895121613061406551FF2CF1C
:101220004695F1DF08C0161617061806991FF1CF6C
:1012300086957105610508940895E894BB27662793
:101240007727CB0197F908950E94AF0808F48FEF34
:1012500008950E943C090C94EA080E94DC0838F0CA
:101260000E94E30820F0952311F00C94D3080C940D
:10127000D90811240C941E090E94FB0870F3959F55
:10128000C1F3950F50E0551F629FF001729FBB277D
:10129000F00DB11D639FAA27F00DB11DAA1F649F19
:1012A0006627B00DA11D661F829F2227B00DA11DCC
:1012B000621F739FB00DA11D621F839FA00D611D52
:1012C000221F749F3327A00D611D231F849F600D73
:1012D000211D822F762F6A2F11249F5750409AF09C
:1012E000F1F088234AF0EE0FFF1FBB1F661F771F28
:1012F000881F91505040A9F79E3F510580F00C94F3
:10130000D3080C941E095F3FE4F3983ED4F386950E
:1013100077956795B795F795E7959F5FC1F7FE2B92
:10132000880F911D9695879597F908950E94AF08AB
:10133000880B990B0895EE0FFF1F0590F491E02D97
:061340000994F894FFCFB0
:101346000E0F101102030405060708093F065B4F3E
:10135600666D7D077F6F777C395E79713D76300EDD
:10136600763800543F7367506D783E3E00766E5B6C
:101376000040806308010000000A000000640000CD
:1013860000E803000010270000A086010040420F7D
:10139600008096980000E1F50500CA9A3B0000001F
:1013A600004601A600D30093010401E200F6000DF9
:1013B6000A003D3D3D3D3D3D3D3D3D3D3D3D3D3DC7
:1013C6003D3D3D3D0057656C636F6D6520746F2034
:1013D6004E686F6D2033004E6869657420646F2017
:1013E60074726F6E672070686F6E67206C613A204A
:1013F600006E616E00696E66006F766600430000DF
:00000001FF
