:100000000C945D000C9485000C9485000C94850084
:100010000C9485000C9485000C9485000C9485004C
:100020000C9485000C9485000C9485000C9485003C
:100030000C9485000C9485000C9485000C9485002C
:100040000C9429050C9485000C94F7040C94D104AD
:100050000C9485000C9485000C9485000C9485000C
:100060000C9485000C94850000000008000201003B
:100070000003040700000000000000000000000072
:10008000250028002B0000000000240027002A0083
:10009000040404040404040402020202020203032E
:1000A0000303030301020408102040800102040836
:1000B0001020010204081020730511241FBECFEF89
:1000C000D8E0DEBFCDBF11E0A0E0B1E0EEE8F5E1A1
:1000D00002C005900D92A038B107D9F722E0A0E840
:1000E000B1E001C01D92A235B207E1F710E0CDE505
:1000F000D0E004C02197FE010E94BF0ACC35D10791
:10010000C9F70E94B1050C94C50A0C94000090E058
:10011000FC01EC55FF4F249180579F4FFC018491C7
:10012000882399F090E0880F991FFC01EA57FF4F50
:10013000A591B491FC01E458FF4F859194918FB73C
:10014000F894EC91E22BEC938FBF0895809100011D
:1001500020E4829FC0011124846080937C00809100
:100160007A00806480937A0080917A0086FDFCCFCB
:1001700080917800909179000895CF93DF9340911A
:100180003E02242F2350330BB901A7E2B2E0EC0169
:1001900030E020E0241788F4E991F0E0EB5CFE4FBA
:1001A00090812617370739F05A969C935A972F5FFC
:1001B0003F4F1196EFCF9068F7CFDF91CF91089521
:1001C0004F925F926F927F92BF92CF92DF92EF92A7
:1001D000FF920F931F93CF93DF936B017C01EA0192
:1001E00080913E0224E0829FC0011124FC01E35F64
:1001F000FE4F4081518162817381415051096109F3
:1002000071094C155D056E057F05A4F0875F9E4F53
:10021000FC01408151816281738181E090E0A0E026
:10022000B0E0841B950BA60BB70BC816D906EA06DF
:10023000FB066CF480E095E220913E02821708F004
:1002400057C0FE01E80FF11D90838F5FF5CFB12CF1
:10025000F7FE0CC085E28883F094E094D094C094BB
:10026000C11CD11CE11CF11CBB24B394E0913E02E3
:10027000BE1630F50B2D10E0E150FF0BE01BF10B2B
:10028000EE0FFF1FEE0FFF1FE35FFE4F4080518018
:1002900062807380C701B601A30192010E94280801
:1002A000FE01E00FF11F2083A22FB0E0A301920115
:1002B0000E944708C61AD70AE80AF90AB394D6CFAB
:1002C00080912D02811114C044E2E82FF0E02091CA
:1002D0003E022350330BE217F30754F4EC0FFD1FDB
:1002E0009081911103C040838F5FEFCF9A30E0F788
:1002F000DF91CF911F910F91FF90EF90DF90CF9002
:10030000BF907F906F905F904F900895AF92BF9293
:10031000CF92DF92EF92FF920F931F93CF93DF93D1
:100320006C017B018B01040F151FEB015E01AE1800
:10033000BF08C017D10759F06991D601ED91FC9122
:100340000190F081E02DC6010995892B79F7C5014F
:10035000DF91CF911F910F91FF90EF90DF90CF90A1
:10036000BF90AF900895FC01538D448D252F30E050
:10037000842F90E0821B930B541710F0CF960895B2
:1003800001970895FC01918D828D981761F0A28DDF
:10039000AE0FBF2FB11D5D968C91928D9F5F9F73A5
:1003A000928F90E008958FEF9FEF0895FC01918D5B
:1003B000828D981731F0828DE80FF11D858D90E0C8
:1003C00008958FEF9FEF0895FC01918D228D892F65
:1003D00090E0805C9F4F821B91098F73992708954D
:1003E0008AE891E00E94E40121E0892B09F420E0F1
:1003F000822F089580E090E0892B29F00E94F0017F
:1004000081110C9400000895FC01A48DA80FB92F50
:10041000B11DA35ABF4F2C91848D90E001968F732C
:100420009927848FA689B7892C93A089B1898C914B
:10043000837080648C93938D848D981306C002889A
:10044000F389E02D80818F7D80830895EF92FF9264
:100450000F931F93CF93DF93EC0181E0888F9B8DE7
:100460008C8D98131AC0E889F989808185FF15C0A1
:100470009FB7F894EE89FF896083E889F9898081C4
:100480008370806480839FBF81E090E0DF91CF9193
:100490001F910F91FF90EF900895F62E0B8D10E0B5
:1004A0000F5F1F4F0F731127E02E8C8D8E110CC024
:1004B0000FB607FCFACFE889F989808185FFF5CF6F
:1004C000CE010E940402F1CFEB8DEC0FFD2FF11D48
:1004D000E35AFF4FF0829FB7F8940B8FEA89FB89AC
:1004E00080818062CFCFCF93DF93EC01888D88230A
:1004F000B9F0AA89BB89E889F9898C9185FD03C087
:10050000808186FD0DC00FB607FCF7CF8C9185FF6B
:10051000F2CF808185FFEDCFCE010E940402E9CFAA
:10052000DF91CF91089590E0FC01E859FF4F2491AD
:10053000FC01EC55FF4F3491FC01E057FF4FE49173
:10054000EE23C9F0222339F0233001F1A8F4213041
:1005500019F1223029F1F0E0EE0FFF1FE458FF4FB0
:10056000A591B4918FB7F894EC91611126C03095A4
:100570003E233C938FBF08952730A9F02830C9F05F
:10058000243049F7809180008F7D03C080918000E6
:100590008F7780938000DFCF84B58F7784BDDBCFEA
:1005A00084B58F7DFBCF8091B0008F778093B000B2
:1005B000D2CF8091B0008F7DF9CF3E2BDACFCF9391
:1005C000DF93C82FD0E080913F02D81758F4ED2F69
:1005D000F0E0E95DFD4F60912A0287850E94930259
:1005E000DF5FF1CFEC2FF0E0E95DFD4F6091280275
:1005F0008781DF91CF910C949302CF93DF93C82F23
:10060000D0E080913E02D81758F4ED2FF0E0E95D7C
:10061000FD4F6091280287810E949302DF5FF1CF36
:10062000EC2FF0E0E95DFD4F60912A028785DF91B4
:10063000CF910C9493021F93CF93DF93C82FD0E0F8
:10064000C95DDD4F609127028F810E94930210E007
:100650006A9680913F021817A8F4E12FF0E0888194
:1006600090E0012E02C0959587950A94E2F780FFED
:1006700007C0E95DFD4F6091290287850E949302C2
:100680001F5FE7CFDF91CF911F9108950F931F93C5
:10069000CF93C82FE82FF0E0E95DFD4F609129026C
:1006A00087850E94930201E010E002C0000F111F35
:1006B000CA95E2F7C0E080913E02C81788F4EC2F9B
:1006C000F0E0E95DFD4F828D90E080239123892B3E
:1006D00029F06091270287810E949302CF5FEBCFC0
:1006E000CF911F910F9108958230910538F0880FB6
:1006F000991F880F991F05970197F1F708953FB744
:10070000F8948091810190918201A0918301B09130
:10071000840126B5A89B05C02F3F19F00196A11DA5
:10072000B11D3FBFBA2FA92F982F8827BC01CD013B
:10073000620F711D811D911D42E0660F771F881F9A
:10074000991F4A95D1F70895FC0101900020E9F71F
:100750003197AF01481B590BBC018AE891E00C941A
:1007600086018F929F92AF92BF920F931F93CF9368
:10077000DF93CDB7DEB7A1970FB6F894DEBF0FBEFB
:10078000CDBF19A2423008F44AE08E010F5D1F4F21
:10079000842E912CB12CA12CA50194010E94520809
:1007A000E62FB901CA01EA30F4F4E05DD801EE9316
:1007B0008D01232B242B252B79F790E080E01097D7
:1007C00019F0CD010E94A403A1960FB6F894DEBFE4
:1007D0000FBECDBFDF91CF911F910F91BF90AF9012
:1007E0009F908F900895E95CE1CF4F925F926F9256
:1007F0007F928F929F92AF92BF92CF92DF92EF92B1
:10080000FF920F931F93CF936B017C01742EAC0169
:100810009B010E94BA0A882399F080E791E0CF916A
:100820001F910F91FF90EF90DF90CF90BF90AF900E
:100830009F908F907F906F905F904F900C94A40347
:1008400046015701E894B7F82FEF3FEF4FE75FE716
:10085000C501B4010E94BA0A81110DC02FEF3FEF0C
:100860004FE75FE7C501B4010E94F00818161CF4B9
:1008700084E791E0D4CF2FEF3FEF4FE75FE4C7016C
:10088000B6010E94480A18161CF488E791E0C7CF09
:100890002FEF3FEF4FE75FECC701B6010E94F00872
:1008A00087FDF3CF20E030E0A901C701B6010E9427
:1008B000F00810E000E087FF0AC06DE28AE891E0EE
:1008C0000E9426028C01F7FAF094F7F8F094C0E049
:1008D00060E070E080E09FE37C1641F020E030E0D3
:1008E00040E251E40E94F508CF5FF6CFA7019601E0
:1008F0000E9484082B013C010E9467094B015C01A6
:100900004AE00E94B1037C01E00EF11ECC23C1F14C
:10091000C501B4010E9496099B01AC01C301B2015B
:100920000E9483084B015C016EE28AE891E00E941C
:100930002602E80EF91EC15018F120E030E040E236
:1009400051E4C501B4010E944D0A2B013C010E94F3
:1009500067094B01B12CA12C4AE0C501B4010E94EA
:10096000B103E80EF91EC501B4010E9496099B016E
:10097000AC01C301B2010E9483084B015C01DBCFD3
:10098000C701CF911F910F91FF90EF90DF90CF9013
:10099000BF90AF909F908F907F906F905F904F909F
:1009A00008951F920F920FB60F9211242F933F9329
:1009B0004F935F936F937F938F939F93AF93BF9367
:1009C000EF93FF938AE891E00E940402FF91EF9178
:1009D000BF91AF919F918F917F916F915F914F9157
:1009E0003F912F910F900FBE0F901F9018951F925F
:1009F0000F920FB60F9211242F938F939F93EF9323
:100A0000FF93E0919A01F0919B018081E091A00118
:100A1000F091A10182FD1BC090818091A3018F5FA5
:100A20008F732091A401821741F0E091A301F0E0BF
:100A3000E657FE4F958F8093A301FF91EF919F9111
:100A40008F912F910F900FBE0F901F90189580815E
:100A5000F4CF1F920F920FB60F9211242F933F9352
:100A60008F939F93AF93BF9380918501909186015F
:100A7000A0918701B09188013091800123E0230F7C
:100A80002D3758F50196A11DB11D2093800180934B
:100A9000850190938601A0938701B093880180918E
:100AA000810190918201A0918301B091840101960E
:100AB000A11DB11D8093810190938201A0938301B8
:100AC000B0938401BF91AF919F918F913F912F91EE
:100AD0000F900FBE0F901F90189526E8230F0296D7
:100AE000A11DB11DD2CFEAE8F1E01382128288EE97
:100AF00093E0A0E0B0E084839583A683B78382E689
:100B000091E09183808385EC90E09587848784ECE5
:100B100090E09787868780EC90E0918B808B81ECCA
:100B200090E0938B828B82EC90E0958B848B86ECAB
:100B300090E0978B868B118E128E138E148EE7E2C7
:100B4000F2E080ED97E097A386A311A610A612A667
:100B5000178A118E12A213A214A215A21482158252
:100B60000895CF93DF93CDB7DEB72C970FB6F894E7
:100B7000DEBF0FBECDBF789484B5826084BD84B5DE
:100B8000816084BD85B5826085BD85B5816085BD88
:100B900080916E00816080936E0010928100809140
:100BA00081008260809381008091810081608093C8
:100BB0008100809180008160809380008091B100ED
:100BC00084608093B1008091B00081608093B00018
:100BD00080917A00846080937A0080917A008260AC
:100BE00080937A0080917A00816080937A0080916E
:100BF0007A00806880937A001092C100E0919A0197
:100C0000F0919B0182E08083E0919601F091970141
:100C10001082E0919801F09199018FEC80831092FD
:100C2000A201E0919E01F0919F0186E08083E09116
:100C30009C01F0919D01808180618083E0919C0105
:100C4000F0919D01808188608083E0919C01F0910A
:100C50009D01808180688083E0919C01F0919D01DD
:100C600080818F7D80830E947F032B013C0194E66D
:100C7000892E912CA12CB12C0E947F036419750937
:100C800086099709683E734081059105A8F321E024
:100C9000821A9108A108B10838EE430E33E0531EC2
:100CA000611C711C81149104A104B10429F7809185
:100CB000010190910201A0910301B0910401898783
:100CC0009A87AB87BC8788E0E5E0F1E0DE0111960A
:100CD00001900D928A95E1F710922B0210922C024E
:100CE00010922D0284E080933E0288E080933F02C0
:100CF00081E08093270210922902109228028093AB
:100D00002A02FE013196A6E3B2E0CE0109962191B6
:100D10002D938E179F07D9F7898580932E028A8598
:100D200080932F028B85809330028C8580933102D3
:100D300010E080913E02181790F4812F90E09C0102
:100D4000295D3D4F7901F90187810E9487006091FB
:100D50002802F70187810E9493021F5FEACF10E00B
:100D600080913F02181760F020913E0290E080E0F1
:100D70008217C0F4FC01E95DFD4F128E0196F8CF99
:100D8000812F90E09C01295D3D4F7901F901878514
:100D90000E94870060912A02F70187850E949302D2
:100DA0001F5FDECF80E00E94FD0280E00E94DF0234
:100DB00080ED97E090934E0280934D021092500286
:100DC00010924F021092510283E08093000180E064
:100DD000E82E80E0F82E01E08FB7F894809085012E
:100DE00090908601A0908701B09088018FBF2FB7A7
:100DF000F8948091850190918601A0918701B0912E
:100E000088012FBF88199909AA09BB09803D97401D
:100E1000A105B10508F0AFC080912C02811170C00E
:100E20000E947F03E09151024090490250904A0293
:100E300060904B0270904C029B01AC012419350963
:100E40004609570940904F0250905002E11104C0EA
:100E500040904D0250904E02052C000C6608770819
:100E600024153505460557050CF4C1CF609349029A
:100E700070934A0280934B0290934C0280914002FF
:100E800020912B0221111FC0EE2391F010925102EC
:100E9000809140028F5F8093400290913F028917BA
:100EA00010F010924002809140020E9446039FCFB2
:100EB0000E94FD0280914F0290915002892B41F3D4
:100EC0000093510294CFEE2391F010925102809141
:100ED00040028F5F8093400290913E02891710F08C
:100EE00010924002809140020E941B0380CF0E941A
:100EF000DF0280914F0290915002892B41F3E0CFA5
:100F000080912B0210E081111BC080913F021817C5
:100F100008F06DCF812F0E94460380914D02909181
:100F20004E020E947403812F0E94FD0280914F02A5
:100F300090915002009711F00E9474031F5FE5CF5B
:100F400080913E02181708F052CF812F0E941B0398
:100F500080914D0290914E020E947403812F0E9455
:100F6000DF0280914F0290915002009711F00E9491
:100F700074031F5FE5CF8AE891E00E94E401181630
:100F8000190634F48AE891E00E94C2018093890135
:100F900080918901813371F08233C9F1E114F10448
:100FA00009F41ACF0E94F001882309F415CF0E949A
:100FB000000012CF0E94A600BC01990F880B990B6C
:100FC0000E9498092EE037E34CED5DE30E944D0A44
:100FD0004B015C0142E00E94F5038CE791E00E9426
:100FE000A40320E030E048EC52E4C501B4010E94C3
:100FF0004D0A0E94670990E080E0AE014F5F5F4FAD
:101000000E94E000CE0101960E94BD00C7CF0E9461
:10101000A600BC01990F880B990B0E9498092EE03D
:1010200037E34CED5DE30E944D0A20E030E040E103
:1010300051E40E944D0A20E030E040EA50E40E9472
:10104000F50820E030E040E052E40E948408C0CF80
:10105000052E97FB1EF400940E943F0857FD07D011
:101060000E94520807FC03D04EF40C943F085095A0
:101070004095309521953F4F4F4F5F4F0895909584
:101080008095709561957F4F8F4F9F4F08950E9477
:101090007408A59F900DB49F900DA49F800D911D85
:1010A00011240895A1E21A2EAA1BBB1BFD010DC03D
:1010B000AA1FBB1FEE1FFF1FA217B307E407F50708
:1010C00020F0A21BB30BE40BF50B661F771F881FE4
:1010D000991F1A9469F760957095809590959B017A
:1010E000AC01BD01CF010895A29FB001B39FC00123
:1010F000A39F700D811D1124911DB29F700D811D44
:101100001124911D08955058BB27AA270E949B08BF
:101110000C940E0A0E94000A38F00E94070A20F080
:1011200039F49F3F19F426F40C94FD090EF4E09570
:10113000E7FB0C94F709E92F0E941F0A58F3BA172E
:10114000620773078407950720F079F4A6F50C94DD
:10115000410A0EF4E0950B2EBA2FA02D0B01B90118
:1011600090010C01CA01A0011124FF27591B99F01D
:10117000593F50F4503E68F11A16F040A22F232F29
:10118000342F4427585FF3CF469537952795A79579
:10119000F0405395C9F77EF41F16BA0B620B730B20
:1011A000840BBAF09150A1F0FF0FBB1F661F771F91
:1011B000881FC2F70EC0BA0F621F731F841F48F446
:1011C000879577956795B795F7959E3F08F0B0CFCF
:1011D0009395880F08F09927EE0F979587950895B6
:1011E0000E94D30908F481E008950E9409090C9433
:1011F0000E0A0E94070A58F00E94000A40F029F4E3
:101200005F3F29F00C94F70951110C94420A0C9499
:10121000FD090E941F0A68F39923B1F3552391F346
:10122000951B550BBB27AA2762177307840738F055
:101230009F5F5F4F220F331F441FAA1FA9F335D0B2
:101240000E2E3AF0E0E832D091505040E695001C66
:10125000CAF72BD0FE2F29D0660F771F881FBB1F20
:10126000261737074807AB07B0E809F0BB0B802DFE
:10127000BF01FF2793585F4F3AF09E3F510578F02A
:101280000C94F7090C94420A5F3FE4F3983ED4F3C0
:10129000869577956795B795F7959F5FC9F7880FFE
:1012A000911D9695879597F90895E1E0660F771F50
:1012B000881FBB1F621773078407BA0720F0621BE1
:1012C000730B840BBA0BEE1F88F7E09508950E940C
:1012D000270A88F09F5798F0B92F9927B751B0F097
:1012E000E1F0660F771F881F991F1AF0BA95C9F7AA
:1012F00014C0B13091F00E94410AB1E008950C94FD
:10130000410A672F782F8827B85F39F0B93FCCF3AF
:10131000869577956795B395D9F73EF49095809526
:10132000709561957F4F8F4F9F4F0895E89409C046
:1013300097FB3EF490958095709561957F4F8F4F08
:101340009F4F9923A9F0F92F96E9BB279395F6951E
:10135000879577956795B795F111F8CFFAF4BB0F9C
:1013600011F460FF1BC06F5F7F4F8F4F9F4F16C000
:10137000882311F096E911C0772321F09EE8872F8A
:10138000762F05C0662371F096E8862F70E060E046
:101390002AF09A95660F771F881FDAF7880F9695BF
:1013A000879597F90895990F0008550FAA0BE0E863
:1013B000FEEF16161706E807F907C0F01216130617
:1013C000E407F50798F0621B730B840B950B39F457
:1013D0000A2661F0232B242B252B21F408950A26BD
:1013E00009F4A140A6958FEF811D811D089597F9FD
:1013F0009F6780E870E060E008959FEF80EC0895BB
:1014000000240A94161617061806090608950024E3
:101410000A9412161306140605060895092E03945D
:10142000000C11F4882352F0BB0F40F4BF2B11F4D1
:1014300060FF04C06F5F7F4F8F4F9F4F089557FD30
:101440009058440F551F59F05F3F71F04795880F32
:1014500097FB991F61F09F3F79F0879508951216C9
:1014600013061406551FF2CF4695F1DF08C0161675
:1014700017061806991FF1CF869571056105089426
:101480000895E894BB2766277727CB0197F908953D
:101490000E94D30908F48FEF08950E94600A0C940B
:1014A0000E0A0E94000A38F00E94070A20F09523D5
:1014B00011F00C94F7090C94FD0911240C94420AC4
:1014C0000E941F0A70F3959FC1F3950F50E0551FBE
:1014D000629FF001729FBB27F00DB11D639FAA2789
:1014E000F00DB11DAA1F649F6627B00DA11D661FD8
:1014F000829F2227B00DA11D621F739FB00DA11DF9
:10150000621F839FA00D611D221F749F3327A00DB2
:10151000611D231F849F600D211D822F762F6A2F4E
:1015200011249F5750409AF0F1F088234AF0EE0FB3
:10153000FF1FBB1F661F771F881F91505040A9F7E0
:101540009E3F510580F00C94F7090C94420A5F3FCE
:10155000E4F3983ED4F3869577956795B795F7951C
:10156000E7959F5FC1F7FE2B880F911D9695879594
:1015700097F908950E94D309880B990B0895EE0FEF
:0E158000FF1F0590F491E02D0994F894FFCF21
:10158E00010E0F10110203040506070809010000E1
:10159E00000A00000064000000E8030000102700AD
:1015AE0000A086010040420F008096980000E1F5F1
:1015BE000500CA9A3B3F065B4F666D7D077F6F77CE
:1015CE007C395E79713D76300E763800543F736704
:1015DE00506D783E3E00766E5B00408063080000E2
:1015EE00000026028601B3017302E401C201D60196
:1015FE006E616E00696E66006F7666000D0A000001
:00000001FF
