:100000000C945D000C9485000C9485000C94850084
:100010000C9485000C9485000C9485000C9485004C
:100020000C9485000C9485000C9485000C9485003C
:100030000C9485000C9485000C9485000C9485002C
:100040000C9448030C9485000C9416030C94F00255
:100050000C9485000C9485000C9485000C9485000C
:100060000C9485000C94850000000008000201003B
:100070000003040700000000000000000000000072
:10008000250028002B0000000000240027002A0083
:10009000040404040404040402020202020203032E
:1000A0000303030301020408102040800102040836
:1000B0001020010204081020920311241FBECFEF6C
:1000C000D8E0DEBFCDBF11E0A0E0B1E0EAE2F3E1AD
:1000D00002C005900D92AE39B107D9F722E0AEE922
:1000E000B1E001C01D92AF36B207E1F710E0CDE5F7
:1000F000D0E004C02197FE010E948D09CC35D107C4
:10010000C9F70E94D0030C9493090C94000090E06E
:10011000FC01EC55FF4F249180579F4FFC018491C7
:10012000882399F090E0880F991FFC01EA57FF4F50
:10013000A591B491FC01E458FF4F859194918FB73C
:10014000F894EC91E22BEC938FBF0895AF92BF929D
:10015000CF92DF92EF92FF920F931F93CF93DF9393
:100160006C017B018B01040F151FEB015E01AE18C2
:10017000BF08C017D10759F06991D601ED91FC91E4
:100180000190F081E02DC6010995892B79F7C50111
:10019000DF91CF911F910F91FF90EF90DF90CF9063
:1001A000BF90AF900895FC01538D448D252F30E012
:1001B000842F90E0821B930B541710F0CF96089574
:1001C00001970895FC01918D828D981761F0A28DA1
:1001D000AE0FBF2FB11D5D968C91928D9F5F9F7367
:1001E000928F90E008958FEF9FEF0895FC01918D1D
:1001F000828D981731F0828DE80FF11D858D90E08A
:1002000008958FEF9FEF0895FC01918D228D892F26
:1002100090E0805C9F4F821B91098F73992708950E
:1002200087EA91E00E94040121E0892B09F420E093
:10023000822F089580E090E0892B29F00E94100120
:1002400081110C9400000895FC01A48DA80FB92F12
:10025000B11DA35ABF4F2C91848D90E001968F73EE
:100260009927848FA689B7892C93A089B1898C910D
:10027000837080648C93938D848D981306C002885C
:10028000F389E02D80818F7D80830895EF92FF9226
:100290000F931F93CF93DF93EC0181E0888F9B8DA9
:1002A0008C8D98131AC0E889F989808185FF15C063
:1002B0009FB7F894EE89FF896083E889F989808186
:1002C0008370806480839FBF81E090E0DF91CF9155
:1002D0001F910F91FF90EF900895F62E0B8D10E077
:1002E0000F5F1F4F0F731127E02E8C8D8E110CC0E6
:1002F0000FB607FCFACFE889F989808185FFF5CF31
:10030000CE010E942401F1CFEB8DEC0FFD2FF11DEA
:10031000E35AFF4FF0829FB7F8940B8FEA89FB896D
:1003200080818062CFCFCF93DF93EC01888D8823CB
:10033000B9F0AA89BB89E889F9898C9185FD03C048
:10034000808186FD0DC00FB607FCF7CF8C9185FF2D
:10035000F2CF808185FFEDCFCE010E942401E9CF4D
:10036000DF91CF91089590E0FC01E859FF4F24916F
:10037000FC01EC55FF4F3491FC01E057FF4FE49135
:10038000EE23C9F0222339F0233001F1A8F4213003
:1003900019F1223029F1F0E0EE0FFF1FE458FF4F72
:1003A000A591B4918FB7F894EC91611126C0309566
:1003B0003E233C938FBF08952730A9F02830C9F021
:1003C000243049F7809180008F7D03C080918000A8
:1003D0008F7780938000DFCF84B58F7784BDDBCFAC
:1003E00084B58F7DFBCF8091B0008F778093B00074
:1003F000D2CF8091B0008F7DF9CF3E2BDACFCF9353
:10040000DF93C82FD0E080915C02D81758F4ED2F0D
:10041000F0E0EC5BFD4F6091470287850E94B301DD
:10042000DF5FF1CFEC2FF0E0EC5BFD4F6091450218
:100430008781DF91CF910C94B301CF93DF93C82FC5
:10044000D0E080915B02D81758F4ED2FF0E0EC5B20
:10045000FD4F6091450287810E94B301DF5FF1CFBC
:10046000EC2FF0E0EC5BFD4F609147028785DF9158
:10047000CF910C94B3011F93CF93DF93C82FD0E09B
:10048000CC5BDD4F609144028F810E94B30110E08C
:100490006A9680915C021817A8F4E12FF0E0888139
:1004A00090E0012E02C0959587950A94E2F780FFAF
:1004B00007C0EC5BFD4F6091460287850E94B30147
:1004C0001F5FE7CFDF91CF911F9108950F931F9387
:1004D000CF93C82FE82FF0E0EC5BFD4F6091460210
:1004E00087850E94B30101E010E002C0000F111FD8
:1004F000CA95E2F7C0E080915B02C81788F4EC2F40
:10050000F0E0EC5BFD4F828D90E080239123892BFE
:1005100029F06091440287810E94B301CF5FEBCF45
:10052000CF911F910F9108958230910538F0880F77
:10053000991F880F991F05970197F1F70895FC01FE
:1005400001900020E9F73197AF01481B590BBC011E
:1005500087EA91E00C94A6008F929F92AF92BF928F
:100560000F931F93CF93DF93CDB7DEB7A1970FB64D
:10057000F894DEBF0FBECDBF19A2423008F44AE0A6
:100580008E010F5D1F4F842E912CB12CA12CA50143
:1005900094010E949207E62FB901CA01EA30F4F4EF
:1005A000E05DD801EE938D01232B242B252B79F7C9
:1005B00090E080E0109719F0CD010E949F02A19673
:1005C0000FB6F894DEBF0FBECDBFDF91CF911F9164
:1005D0000F91BF90AF909F908F900895E95CE1CF0D
:1005E0001F920F920FB60F9211242F933F934F93A8
:1005F0005F936F937F938F939F93AF93BF93EF938B
:10060000FF9387EA91E00E942401FF91EF91BF914F
:10061000AF919F918F917F916F915F914F913F919A
:100620002F910F900FBE0F901F9018951F920F9251
:100630000FB60F9211242F938F939F93EF93FF93F5
:10064000E091B701F091B8018081E091BD01F09196
:10065000BE0182FD1BC090818091C0018F5F8F73AE
:100660002091C101821741F0E091C001F0E0E9550D
:10067000FE4F958F8093C001FF91EF919F918F91D5
:100680002F910F900FBE0F901F9018958081F4CF7F
:100690001F920F920FB60F9211242F933F938F93B7
:1006A0009F93AF93BF9380919F019091A001A091E0
:1006B000A101B091A20130919E0123E0230F2D37BB
:1006C00058F50196A11DB11D20939E0180939F01B5
:1006D0009093A001A093A101B093A2018091A301E6
:1006E0009091A401A091A501B091A6010196A11D30
:1006F000B11D8093A3019093A401A093A501B09391
:10070000A601BF91AF919F918F913F912F910F9033
:100710000FBE0F901F90189526E8230F0296A11D7B
:10072000B11DD2CFE7EAF1E01382128288EE93E0A6
:10073000A0E0B0E084839583A683B78382E691E04E
:100740009183808385EC90E09587848784EC90E0AA
:100750009787868780EC90E0918B808B81EC90E08E
:10076000938B828B82EC90E0958B848B86EC90E06F
:10077000978B868B118E128E138E148EE4E4F2E02A
:1007800080ED97E097A386A311A610A612A6178A5C
:10079000118E12A213A214A215A21482158208951A
:1007A000CF93DF93CDB7DEB761970FB6F894DEBF76
:1007B0000FBECDBF789484B5826084BD84B581605E
:1007C00084BD85B5826085BD85B5816085BD80911C
:1007D0006E00816080936E00109281008091810094
:1007E000826080938100809181008160809381008C
:1007F000809180008160809380008091B10084604E
:100800008093B1008091B00081608093B0008091AE
:100810007A00846080937A0080917A00826080936D
:100820007A0080917A00816080937A0080917A00CA
:10083000806880937A001092C100E091B701F09136
:10084000B80182E08083E091B301F091B40110829D
:10085000E091B501F091B6018FEC80831092BF0159
:10086000E091BB01F091BC0186E08083E091B90189
:10087000F091BA01808180618083E091B901F091AB
:10088000BA01808188608083E091B901F091BA015A
:10089000808180688083E091B901F091BA01808104
:1008A0008F7D80838091010190910201A0910301CD
:1008B000B091040189879A87AB87BC8788E0E5E01F
:1008C000F1E08E010F5F1F4FD80101900D928A95C4
:1008D000E1F7109248021092490210924A0284E015
:1008E00080935B0288E080935C0281E08093440205
:1008F000109246021092450280934702F801A3E548
:10090000B2E0CE01099621912D93E817F907D9F7A6
:10091000898580934B028A8580934C028B858093D6
:100920004D028C8580934E02F12C80915B02F8166B
:1009300090F48F2D90E09C012C5B3D4F6901F901F3
:1009400087810E94870060914502F60187810E949D
:10095000B301F394EACFF12C80915C02F81660F0B9
:1009600020915B0290E080E08217C0F4FC01EC5B18
:10097000FD4F128E0196F8CF8F2D90E09C012C5BDD
:100980003D4F6901F90187850E9487006091470208
:10099000F60187850E94B301F394DECF80E00E94C8
:1009A0001D0280E00E94FF0180ED97E090936B02B2
:1009B00080936A0210926D0210926C0210926E0285
:1009C00083E0809300018FB7F894C0909F01D0908E
:1009D000A001E090A101F090A2018FBF2FB7F89481
:1009E00080919F019091A001A091A101B091A201DD
:1009F0002FBF8C199D09AE09BF09803D9740A10505
:100A0000B10508F0D0C080914902811191C03FB773
:100A1000F8948091A3019091A401A091A501B091B7
:100A2000A60126B5A89B05C02F3F19F00196A11D70
:100A3000B11D3FBFBA2FA92F982F8827820F911D74
:100A4000A11DB11D42E0880F991FAA1FBB1F4A9527
:100A5000D1F720916E024091660250916702609139
:100A60006802709169024C015D01841A950AA60A18
:100A7000B70A40916C0250916D02211104C040915F
:100A80006A0250916B02052E000C660B770B8416E0
:100A90009506A606B7060CF4A1CF80936602909344
:100AA0006702A0936802B093690280915D02909101
:100AB0004802911120C0222391F010926E02809181
:100AC0005D028F5F80935D0290915C02891710F048
:100AD00010925D0280915D020E9466027FCF0E94AB
:100AE0001D0280916C0290916D02892B41F321E0EF
:100AF00020936E0273CF222391F010926E028091A8
:100B00005D028F5F80935D0290915B02891710F008
:100B100010925D0280915D020E943B025FCF0E94B5
:100B2000FF0180916C0290916D02892B41F3DFCF20
:100B300080914802B12C81111BC080915C02B816D3
:100B400008F04CCF8B2D0E94660280916A02909132
:100B50006B020E9494028B2D0E941D0280916C02F8
:100B600090916D02009711F00E949402B394E5CF2A
:100B700080915B02B81608F031CF8B2D0E943B02AA
:100B800080916A0290916B020E9494028B2D0E94C8
:100B9000FF0180916C0290916D02009711F00E940C
:100BA0009402B394E5CF8091000130E4839FC001AB
:100BB0001124846080937C0080917A00806480930B
:100BC0007A0080917A0086FDFCCF80917800609158
:100BD0007900762F682F072E000C880B990B0E9446
:100BE00066082EE037E34CED5DE30E941B096B01C4
:100BF0007C0180E791E00E949F0287E891E00E94DB
:100C00009F02A7019601C701B6010E9488098823A7
:100C100009F455C08AE891E00E949F0286E991E0BC
:100C20000E949F0287E891E00E949F0220E030E04E
:100C300048EC52E4C701B6010E941B090E94350826
:100C40006B01F12CE12C40915B024D87842E912C9D
:100C50003401660C771C660C771CF301EA5CFE4FCE
:100C600080819181A281B381C816D906EA06FB066C
:100C70000CF4B7C0F8018E2F801B3D85831708F454
:100C8000FCC043E0841A9108A4E4B2E0980190E02B
:100C900080E05D85851708F00EC1F90141919F0143
:100CA000E42FF0E0E35FFE4F40818815990509F4D9
:100CB00000C15A964C935A9701961196EACF460175
:100CC0005701E894B7F82FEF3FEF4FE75FE7C50113
:100CD000B4010E94880981110DC02FEF3FEF4FE74B
:100CE0005FE7C501B4010E94300818161CF48EE8B5
:100CF00091E092CF2FEF3FEF4FE75FE4C701B601DE
:100D00000E94160918161CF482E991E085CF2FEF96
:100D10003FEF4FE75FECC701B6010E94300887FD47
:100D2000F3CF20E030E0A901C701B6010E943008EE
:100D300087FF54C06DE287EA91E00E944601C70137
:100D4000B60190582AE037ED43EA5BE30E94C407FE
:100D50002B013C010E9435084B015C010E94640894
:100D60009B01AC01C301B2010E94C3072B013C01EE
:100D70004AE0C501B4010E94AC026EE287EA91E04C
:100D80000E94460120E030E040E251E4C301B2019C
:100D90000E941B092B013C010E9435084B01B12C1C
:100DA000A12C4AE0C501B4010E94AC02C501B40106
:100DB0000E9464089B01AC01C301B2010E94C307F9
:100DC00020E030E040E251E40E941B090E94350817
:100DD00090E080E04AE00E94AC0220CFC701B6015B
:100DE000B1CFD301AE5CBE4F8D919D910D90BC9162
:100DF000A02D21E030E040E050E0281B390B4A0BE9
:100E00005B0BDA01C901C816D906EA06FB060CF429
:100E100031CF5F011F870E872CEFA4012403C0018F
:100E2000259F900D1124998B888B86E3A81681E06D
:100E3000B80631F194E0A91AB108E889F989EA0DF8
:100E4000FB1DE60DF71D2080318042805380C701D5
:100E5000B601A20191010E946807EE85FF852193EA
:100E6000FF87EE87A22FB0E0A20191010E948707C1
:100E7000C61AD70AE80AF90AD8CF55E25193FBCE31
:100E800080914A028111FDCE940123503109E82F4F
:100E9000F0E0E217F3070CF0F4CEE00FF11F9081C1
:100EA000911104C044E240838F5FF1CF9A30E0F7A4
:100EB000E8CE4068FECE20E030E0232B09F483CD5D
:100EC0000E941001882309F47ECD0E9400007BCD92
:100ED000052E97FB1EF400940E947F0757FD07D054
:100EE0000E94920707FC03D04EF40C947F075095A4
:100EF0004095309521953F4F4F4F5F4F0895909506
:100F00008095709561957F4F8F4F9F4F08950E94F8
:100F1000B407A59F900DB49F900DA49F800D911DC7
:100F200011240895A1E21A2EAA1BBB1BFD010DC0BE
:100F3000AA1FBB1FEE1FFF1FA217B307E407F50789
:100F400020F0A21BB30BE40BF50B661F771F881F65
:100F5000991F1A9469F760957095809590959B01FB
:100F6000AC01BD01CF010895A29FB001B39FC001A4
:100F7000A39F700D811D1124911DB29F700D811DC5
:100F80001124911D08955058BB27AA270E94DB0702
:100F90000C94DC080E94CE0838F00E94D50820F09E
:100FA00039F49F3F19F426F40C94CB080EF4E09525
:100FB000E7FB0C94C508E92F0E94ED0858F3BA1717
:100FC000620773078407950720F079F4A6F50C945F
:100FD0000F090EF4E0950B2EBA2FA02D0B01B901CD
:100FE00090010C01CA01A0011124FF27591B99F09F
:100FF000593F50F4503E68F11A16F040A22F232FAB
:10100000342F4427585FF3CF469537952795A795FA
:10101000F0405395C9F77EF41F16BA0B620B730BA1
:10102000840BBAF09150A1F0FF0FBB1F661F771F12
:10103000881FC2F70EC0BA0F621F731F841F48F4C7
:10104000879577956795B795F7959E3F08F0B0CF50
:101050009395880F08F09927EE0F97958795089537
:101060000E94A10808F481E008950E94F50888F024
:101070009F5798F0B92F9927B751B0F0E1F0660F5C
:10108000771F881F991F1AF0BA95C9F714C0B1309D
:1010900091F00E940F09B1E008950C940F09672F99
:1010A000782F8827B85F39F0B93FCCF386957795CC
:1010B0006795B395D9F73EF49095809570956195B5
:1010C0007F4F8F4F9F4F0895E89409C097FB3EF4E0
:1010D00090958095709561957F4F8F4F9F4F992385
:1010E000A9F0F92F96E9BB279395F6958795779503
:1010F0006795B795F111F8CFFAF4BB0F11F460FFC3
:101100001BC06F5F7F4F8F4F9F4F16C0882311F01A
:1011100096E911C0772321F09EE8872F762F05C02E
:10112000662371F096E8862F70E060E02AF09A95C9
:10113000660F771F881FDAF7880F9695879597F9BE
:101140000895990F0008550FAA0BE0E8FEEF161658
:101150001706E807F907C0F012161306E407F507AB
:1011600098F0621B730B840B950B39F40A2661F01F
:10117000232B242B252B21F408950A2609F4A140C2
:10118000A6958FEF811D811D089597F99F6780E8CF
:1011900070E060E008959FEF80EC089500240A94C9
:1011A0001616170618060906089500240A94121642
:1011B0001306140605060895092E0394000C11F475
:1011C000882352F0BB0F40F4BF2B11F460FF04C022
:1011D0006F5F7F4F8F4F9F4F089557FD9058440F7B
:1011E000551F59F05F3F71F04795880F97FB991F86
:1011F00061F09F3F79F08795089512161306140643
:10120000551FF2CF4695F1DF08C0161617061806CF
:10121000991FF1CF86957105610508940895E894AA
:10122000BB2766277727CB0197F908950E94A1086D
:1012300008F48FEF08950E942E090C94DC080E9498
:10124000CE0838F00E94D50820F0952311F00C94B8
:10125000C5080C94CB0811240C9410090E94ED08C9
:1012600070F3959FC1F3950F50E0551F629FF001F9
:10127000729FBB27F00DB11D639FAA27F00DB11D12
:10128000AA1F649F6627B00DA11D661F829F22279B
:10129000B00DA11D621F739FB00DA11D621F839F22
:1012A000A00D611D221F749F3327A00D611D231FF8
:1012B000849F600D211D822F762F6A2F11249F5746
:1012C00050409AF0F1F088234AF0EE0FFF1FBB1F49
:1012D000661F771F881F91505040A9F79E3F510508
:1012E00080F00C94C5080C9410095F3FE4F3983E1D
:1012F000D4F3869577956795B795F795E7959F5FB2
:10130000C1F7FE2B880F911D9695879597F9089543
:101310000E94A108880B990B0895EE0FFF1F0590FE
:0A132000F491E02D0994F894FFCF3A
:10132A00010E0F101102030405060708093F065BA8
:10133A004F666D7D077F6F777C395E79713D7630B8
:10134A000E763800543F7367506D783E3E00766ED5
:10135A005B0040806308010000000A00000064008E
:10136A000000E803000010270000A08601004042A8
:10137A000F008096980000E1F50500CA9A3B00002C
:10138A0000004601A600D30093010401E200F60022
:10139A00526F6F6D2074656D7065726174757265D8
:1013AA00206973202D20000D0A006E616E00696E9F
:0E13BA0066006F7666002064656720430000C1
:00000001FF
